{
  "_format": "hh-sol-artifact-1",
  "contractName": "EvidenceRegistry",
  "sourceName": "contracts/EvidenceRegistry.sol",
  "abi": [
    {
      "inputs": [
        {
          "internalType": "address",
          "name": "_roleManager",
          "type": "address"
        }
      ],
      "stateMutability": "nonpayable",
      "type": "constructor"
    },
    {
      "anonymous": false,
      "inputs": [
        {
          "indexed": true,
          "internalType": "uint256",
          "name": "caseId",
          "type": "uint256"
        },
        {
          "indexed": false,
          "internalType": "string",
          "name": "title",
          "type": "string"
        },
        {
          "indexed": false,
          "internalType": "uint256",
          "name": "timestamp",
          "type": "uint256"
        }
      ],
      "name": "CaseCreated",
      "type": "event"
    },
    {
      "anonymous": false,
      "inputs": [
        {
          "indexed": true,
          "internalType": "uint256",
          "name": "evidenceId",
          "type": "uint256"
        },
        {
          "indexed": true,
          "internalType": "address",
          "name": "from",
          "type": "address"
        },
        {
          "indexed": true,
          "internalType": "address",
          "name": "to",
          "type": "address"
        },
        {
          "indexed": false,
          "internalType": "uint256",
          "name": "timestamp",
          "type": "uint256"
        }
      ],
      "name": "CustodyTransferred",
      "type": "event"
    },
    {
      "anonymous": false,
      "inputs": [
        {
          "indexed": true,
          "internalType": "uint256",
          "name": "caseId",
          "type": "uint256"
        },
        {
          "indexed": true,
          "internalType": "uint256",
          "name": "evidenceId",
          "type": "uint256"
        }
      ],
      "name": "EvidenceLinkedToCase",
      "type": "event"
    },
    {
      "anonymous": false,
      "inputs": [
        {
          "indexed": true,
          "internalType": "uint256",
          "name": "evidenceId",
          "type": "uint256"
        },
        {
          "indexed": true,
          "internalType": "address",
          "name": "investigator",
          "type": "address"
        },
        {
          "indexed": false,
          "internalType": "uint256",
          "name": "timestamp",
          "type": "uint256"
        }
      ],
      "name": "EvidenceRegistered",
      "type": "event"
    },
    {
      "anonymous": false,
      "inputs": [
        {
          "indexed": true,
          "internalType": "uint256",
          "name": "evidenceId",
          "type": "uint256"
        },
        {
          "indexed": false,
          "internalType": "string",
          "name": "ipfsHash",
          "type": "string"
        },
        {
          "indexed": true,
          "internalType": "address",
          "name": "technician",
          "type": "address"
        },
        {
          "indexed": false,
          "internalType": "uint256",
          "name": "timestamp",
          "type": "uint256"
        }
      ],
      "name": "LabReportAdded",
      "type": "event"
    },
    {
      "inputs": [
        {
          "internalType": "uint256",
          "name": "caseId",
          "type": "uint256"
        },
        {
          "internalType": "string",
          "name": "note",
          "type": "string"
        }
      ],
      "name": "addCaseNote",
      "outputs": [],
      "stateMutability": "nonpayable",
      "type": "function"
    },
    {
      "inputs": [
        {
          "internalType": "uint256",
          "name": "evidenceId",
          "type": "uint256"
        },
        {
          "internalType": "string",
          "name": "ipfsHash",
          "type": "string"
        }
      ],
      "name": "addLabReport",
      "outputs": [],
      "stateMutability": "nonpayable",
      "type": "function"
    },
    {
      "inputs": [
        {
          "internalType": "uint256",
          "name": "",
          "type": "uint256"
        }
      ],
      "name": "cases",
      "outputs": [
        {
          "internalType": "uint256",
          "name": "caseId",
          "type": "uint256"
        },
        {
          "internalType": "string",
          "name": "title",
          "type": "string"
        },
        {
          "internalType": "enum EvidenceRegistry.CaseStatus",
          "name": "status",
          "type": "uint8"
        }
      ],
      "stateMutability": "view",
      "type": "function"
    },
    {
      "inputs": [
        {
          "internalType": "string",
          "name": "title",
          "type": "string"
        }
      ],
      "name": "createCase",
      "outputs": [],
      "stateMutability": "nonpayable",
      "type": "function"
    },
    {
      "inputs": [
        {
          "internalType": "uint256",
          "name": "",
          "type": "uint256"
        }
      ],
      "name": "evidences",
      "outputs": [
        {
          "internalType": "uint256",
          "name": "id",
          "type": "uint256"
        },
        {
          "internalType": "string",
          "name": "description",
          "type": "string"
        },
        {
          "internalType": "enum EvidenceRegistry.EvidenceType",
          "name": "evidenceType",
          "type": "uint8"
        },
        {
          "internalType": "string",
          "name": "ipfsHash",
          "type": "string"
        },
        {
          "internalType": "address",
          "name": "currentHolder",
          "type": "address"
        },
        {
          "internalType": "uint256",
          "name": "timestampCreated",
          "type": "uint256"
        }
      ],
      "stateMutability": "view",
      "type": "function"
    },
    {
      "inputs": [
        {
          "internalType": "uint256",
          "name": "evidenceId",
          "type": "uint256"
        }
      ],
      "name": "getCustodyHistory",
      "outputs": [
        {
          "components": [
            {
              "internalType": "address",
              "name": "from",
              "type": "address"
            },
            {
              "internalType": "address",
              "name": "to",
              "type": "address"
            },
            {
              "internalType": "uint256",
              "name": "timestamp",
              "type": "uint256"
            }
          ],
          "internalType": "struct EvidenceRegistry.CustodyRecord[]",
          "name": "",
          "type": "tuple[]"
        }
      ],
      "stateMutability": "view",
      "type": "function"
    },
    {
      "inputs": [
        {
          "internalType": "uint256",
          "name": "evidenceId",
          "type": "uint256"
        }
      ],
      "name": "getEvidenceHash",
      "outputs": [
        {
          "internalType": "string",
          "name": "",
          "type": "string"
        }
      ],
      "stateMutability": "view",
      "type": "function"
    },
    {
      "inputs": [
        {
          "internalType": "uint256",
          "name": "evidenceId",
          "type": "uint256"
        }
      ],
      "name": "getLabReports",
      "outputs": [
        {
          "internalType": "string[]",
          "name": "",
          "type": "string[]"
        }
      ],
      "stateMutability": "view",
      "type": "function"
    },
    {
      "inputs": [
        {
          "internalType": "uint256",
          "name": "caseId",
          "type": "uint256"
        },
        {
          "internalType": "uint256",
          "name": "evidenceId",
          "type": "uint256"
        }
      ],
      "name": "linkEvidenceToCase",
      "outputs": [],
      "stateMutability": "nonpayable",
      "type": "function"
    },
    {
      "inputs": [],
      "name": "nextCaseId",
      "outputs": [
        {
          "internalType": "uint256",
          "name": "",
          "type": "uint256"
        }
      ],
      "stateMutability": "view",
      "type": "function"
    },
    {
      "inputs": [],
      "name": "nextEvidenceId",
      "outputs": [
        {
          "internalType": "uint256",
          "name": "",
          "type": "uint256"
        }
      ],
      "stateMutability": "view",
      "type": "function"
    },
    {
      "inputs": [
        {
          "internalType": "string",
          "name": "description",
          "type": "string"
        },
        {
          "internalType": "enum EvidenceRegistry.EvidenceType",
          "name": "evidenceType",
          "type": "uint8"
        },
        {
          "internalType": "string",
          "name": "ipfsHash",
          "type": "string"
        }
      ],
      "name": "registerEvidence",
      "outputs": [],
      "stateMutability": "nonpayable",
      "type": "function"
    },
    {
      "inputs": [],
      "name": "roleManager",
      "outputs": [
        {
          "internalType": "contract RoleManager",
          "name": "",
          "type": "address"
        }
      ],
      "stateMutability": "view",
      "type": "function"
    },
    {
      "inputs": [
        {
          "internalType": "uint256",
          "name": "caseId",
          "type": "uint256"
        },
        {
          "internalType": "enum EvidenceRegistry.CaseStatus",
          "name": "status",
          "type": "uint8"
        }
      ],
      "name": "setCaseStatus",
      "outputs": [],
      "stateMutability": "nonpayable",
      "type": "function"
    },
    {
      "inputs": [
        {
          "internalType": "uint256",
          "name": "evidenceId",
          "type": "uint256"
        },
        {
          "internalType": "address",
          "name": "newHolder",
          "type": "address"
        }
      ],
      "name": "transferCustody",
      "outputs": [],
      "stateMutability": "nonpayable",
      "type": "function"
    }
  ],
  "bytecode": "0x60806040523480156200001157600080fd5b50604051620026de380380620026de8339818101604052810190620000379190620000e8565b806000806101000a81548173ffffffffffffffffffffffffffffffffffffffff021916908373ffffffffffffffffffffffffffffffffffffffff160217905550506200011a565b600080fd5b600073ffffffffffffffffffffffffffffffffffffffff82169050919050565b6000620000b08262000083565b9050919050565b620000c281620000a3565b8114620000ce57600080fd5b50565b600081519050620000e281620000b7565b92915050565b6000602082840312156200010157620001006200007e565b5b60006200011184828501620000d1565b91505092915050565b6125b4806200012a6000396000f3fe608060405234801561001057600080fd5b50600436106100f45760003560e01c80637d010e7811610097578063d0d10af111610066578063d0d10af114610274578063d75af31e14610290578063f09790dd146102c0578063ff499a72146102f2576100f4565b80637d010e78146101f0578063815fc9bb1461022057806388f1ea631461023c578063be0f42e514610258576100f4565b80632ac3244f116100d35780632ac3244f146101655780632e4546cd146101815780633e5c37eb146101b65780636350eae8146101d2576100f4565b8062435da5146100f957806306c45f9e1461011757806329caec3214610147575b600080fd5b61010161030e565b60405161010e919061160c565b60405180910390f35b610131600480360381019061012c9190611667565b610332565b60405161013e9190611724565b60405180910390f35b61014f6103da565b60405161015c9190611755565b60405180910390f35b61017f600480360381019061017a91906117d5565b6103e0565b005b61019b60048036038101906101969190611667565b610563565b6040516101ad969594939291906118cd565b60405180910390f35b6101d060048036038101906101cb91906117d5565b6106dc565b005b6101da610850565b6040516101e79190611755565b60405180910390f35b61020a60048036038101906102059190611667565b610856565b6040516102179190611a48565b60405180910390f35b61023a60048036038101906102359190611a96565b610945565b005b61025660048036038101906102519190611ad6565b610c06565b005b610272600480360381019061026d9190611b3b565b610dd6565b005b61028e60048036038101906102899190611bd0565b6110f1565b005b6102aa60048036038101906102a59190611667565b611288565b6040516102b79190611d2c565b60405180910390f35b6102da60048036038101906102d59190611667565b6113b3565b6040516102e993929190611d96565b60405180910390f35b61030c60048036038101906103079190611df9565b611472565b005b60008054906101000a900473ffffffffffffffffffffffffffffffffffffffff1681565b606060036000838152602001908152602001600020600301805461035590611e68565b80601f016020809104026020016040519081016040528092919081815260200182805461038190611e68565b80156103ce5780601f106103a3576101008083540402835291602001916103ce565b820191906000526020600020905b8154815290600101906020018083116103b157829003601f168201915b50505050509050919050565b60015481565b60008054906101000a900473ffffffffffffffffffffffffffffffffffffffff1673ffffffffffffffffffffffffffffffffffffffff16630f5b76fa336040518263ffffffff1660e01b81526004016104399190611e99565b602060405180830381865afa158015610456573d6000803e3d6000fd5b505050506040513d601f19601f8201168201806040525081019061047a9190611eec565b6104b9576040517f08c379a00000000000000000000000000000000000000000000000000000000081526004016104b090611f65565b60405180910390fd5b6003600084815260200190815260200160002060060182829091806001815401808255809150506001900390600052602060002001600090919290919290919290919250918261050a929190612161565b503373ffffffffffffffffffffffffffffffffffffffff16837f0a76c1552f6ca3836f10df781505e49b0fa8c29ecbad4e24b64d43be73ec55b38484426040516105569392919061226d565b60405180910390a3505050565b600360205280600052604060002060009150905080600001549080600101805461058c90611e68565b80601f01602080910402602001604051908101604052809291908181526020018280546105b890611e68565b80156106055780601f106105da57610100808354040283529160200191610605565b820191906000526020600020905b8154815290600101906020018083116105e857829003601f168201915b5050505050908060020160009054906101000a900460ff169080600301805461062d90611e68565b80601f016020809104026020016040519081016040528092919081815260200182805461065990611e68565b80156106a65780601f1061067b576101008083540402835291602001916106a6565b820191906000526020600020905b81548152906001019060200180831161068957829003601f168201915b5050505050908060040160009054906101000a900473ffffffffffffffffffffffffffffffffffffffff16908060050154905086565b60008054906101000a900473ffffffffffffffffffffffffffffffffffffffff1673ffffffffffffffffffffffffffffffffffffffff16637cb76b8b336040518263ffffffff1660e01b81526004016107359190611e99565b602060405180830381865afa158015610752573d6000803e3d6000fd5b505050506040513d601f19601f820116820180604052508101906107769190611eec565b6107b5576040517f08c379a00000000000000000000000000000000000000000000000000000000081526004016107ac90612311565b60405180910390fd5b60025483106107f9576040517f08c379a00000000000000000000000000000000000000000000000000000000081526004016107f09061237d565b60405180910390fd5b6004600084815260200190815260200160002060040182829091806001815401808255809150506001900390600052602060002001600090919290919290919290919250918261084a929190612161565b50505050565b60025481565b606060036000838152602001908152602001600020600601805480602002602001604051908101604052809291908181526020016000905b8282101561093a5783829060005260206000200180546108ad90611e68565b80601f01602080910402602001604051908101604052809291908181526020018280546108d990611e68565b80156109265780601f106108fb57610100808354040283529160200191610926565b820191906000526020600020905b81548152906001019060200180831161090957829003601f168201915b50505050508152602001906001019061088e565b505050509050919050565b813373ffffffffffffffffffffffffffffffffffffffff166003600083815260200190815260200160002060040160009054906101000a900473ffffffffffffffffffffffffffffffffffffffff1673ffffffffffffffffffffffffffffffffffffffff16146109ea576040517f08c379a00000000000000000000000000000000000000000000000000000000081526004016109e19061240f565b60405180910390fd5b60006003600085815260200190815260200160002060040160009054906101000a900473ffffffffffffffffffffffffffffffffffffffff169050826003600086815260200190815260200160002060040160006101000a81548173ffffffffffffffffffffffffffffffffffffffff021916908373ffffffffffffffffffffffffffffffffffffffff1602179055506003600085815260200190815260200160002060070160405180606001604052808373ffffffffffffffffffffffffffffffffffffffff1681526020018573ffffffffffffffffffffffffffffffffffffffff16815260200142815250908060018154018082558091505060019003906000526020600020906003020160009091909190915060008201518160000160006101000a81548173ffffffffffffffffffffffffffffffffffffffff021916908373ffffffffffffffffffffffffffffffffffffffff16021790555060208201518160010160006101000a81548173ffffffffffffffffffffffffffffffffffffffff021916908373ffffffffffffffffffffffffffffffffffffffff1602179055506040820151816002015550508273ffffffffffffffffffffffffffffffffffffffff168173ffffffffffffffffffffffffffffffffffffffff16857f55f940726e9a2689d79bf3c29305c07b4df0134b15e5e06e78894b2d2fea323642604051610bf89190611755565b60405180910390a450505050565b60008054906101000a900473ffffffffffffffffffffffffffffffffffffffff1673ffffffffffffffffffffffffffffffffffffffff16637cb76b8b336040518263ffffffff1660e01b8152600401610c5f9190611e99565b602060405180830381865afa158015610c7c573d6000803e3d6000fd5b505050506040513d601f19601f82011682018060405250810190610ca09190611eec565b610cdf576040517f08c379a0000000000000000000000000000000000000000000000000000000008152600401610cd690612311565b60405180910390fd5b6002548210610d23576040517f08c379a0000000000000000000000000000000000000000000000000000000008152600401610d1a9061247b565b60405180910390fd5b6001548110610d67576040517f08c379a0000000000000000000000000000000000000000000000000000000008152600401610d5e906124e7565b60405180910390fd5b6004600083815260200190815260200160002060030181908060018154018082558091505060019003906000526020600020016000909190919091505580827feb65f4f2f73c335b43ea79820d94346fce84e07f2175c13bcfe8d99fd955cd7860405160405180910390a35050565b60008054906101000a900473ffffffffffffffffffffffffffffffffffffffff1673ffffffffffffffffffffffffffffffffffffffff16637cb76b8b336040518263ffffffff1660e01b8152600401610e2f9190611e99565b602060405180830381865afa158015610e4c573d6000803e3d6000fd5b505050506040513d601f19601f82011682018060405250810190610e709190611eec565b610eaf576040517f08c379a0000000000000000000000000000000000000000000000000000000008152600401610ea690612311565b60405180910390fd5b600060016000815480929190610ec490612536565b91905055905060006003600083815260200190815260200160002090508181600001819055508686826001019182610efd929190612161565b50848160020160006101000a81548160ff02191690836004811115610f2557610f24611835565b5b02179055508383826003019182610f3d929190612161565b50338160040160006101000a81548173ffffffffffffffffffffffffffffffffffffffff021916908373ffffffffffffffffffffffffffffffffffffffff160217905550428160050181905550806007016040518060600160405280600073ffffffffffffffffffffffffffffffffffffffff1681526020013373ffffffffffffffffffffffffffffffffffffffff16815260200142815250908060018154018082558091505060019003906000526020600020906003020160009091909190915060008201518160000160006101000a81548173ffffffffffffffffffffffffffffffffffffffff021916908373ffffffffffffffffffffffffffffffffffffffff16021790555060208201518160010160006101000a81548173ffffffffffffffffffffffffffffffffffffffff021916908373ffffffffffffffffffffffffffffffffffffffff1602179055506040820151816002015550503373ffffffffffffffffffffffffffffffffffffffff16827fae9b1a9355724d1f69b7ebc424e20b5fd8ab72ca431842ae489d81f54949e5cc426040516110e09190611755565b60405180910390a350505050505050565b60008054906101000a900473ffffffffffffffffffffffffffffffffffffffff1673ffffffffffffffffffffffffffffffffffffffff16637cb76b8b336040518263ffffffff1660e01b815260040161114a9190611e99565b602060405180830381865afa158015611167573d6000803e3d6000fd5b505050506040513d601f19601f8201168201806040525081019061118b9190611eec565b6111ca576040517f08c379a00000000000000000000000000000000000000000000000000000000081526004016111c190612311565b60405180910390fd5b6000600260008154809291906111df90612536565b91905055905060006004600083815260200190815260200160002090508181600001819055508383826001019182611218929190612161565b5060008160020160006101000a81548160ff0219169083600281111561124157611240611835565b5b0217905550817fd904444d665098d4a571393e9f8c559e3846d0da99d10a5056466b8665d9882385854260405161127a9392919061226d565b60405180910390a250505050565b606060036000838152602001908152602001600020600701805480602002602001604051908101604052809291908181526020016000905b828210156113a857838290600052602060002090600302016040518060600160405290816000820160009054906101000a900473ffffffffffffffffffffffffffffffffffffffff1673ffffffffffffffffffffffffffffffffffffffff1673ffffffffffffffffffffffffffffffffffffffff1681526020016001820160009054906101000a900473ffffffffffffffffffffffffffffffffffffffff1673ffffffffffffffffffffffffffffffffffffffff1673ffffffffffffffffffffffffffffffffffffffff168152602001600282015481525050815260200190600101906112c0565b505050509050919050565b60046020528060005260406000206000915090508060000154908060010180546113dc90611e68565b80601f016020809104026020016040519081016040528092919081815260200182805461140890611e68565b80156114555780601f1061142a57610100808354040283529160200191611455565b820191906000526020600020905b81548152906001019060200180831161143857829003601f168201915b5050505050908060020160009054906101000a900460ff16905083565b60008054906101000a900473ffffffffffffffffffffffffffffffffffffffff1673ffffffffffffffffffffffffffffffffffffffff16637cb76b8b336040518263ffffffff1660e01b81526004016114cb9190611e99565b602060405180830381865afa1580156114e8573d6000803e3d6000fd5b505050506040513d601f19601f8201168201806040525081019061150c9190611eec565b61154b576040517f08c379a000000000000000000000000000000000000000000000000000000000815260040161154290612311565b60405180910390fd5b806004600084815260200190815260200160002060020160006101000a81548160ff0219169083600281111561158457611583611835565b5b02179055505050565b600073ffffffffffffffffffffffffffffffffffffffff82169050919050565b6000819050919050565b60006115d26115cd6115c88461158d565b6115ad565b61158d565b9050919050565b60006115e4826115b7565b9050919050565b60006115f6826115d9565b9050919050565b611606816115eb565b82525050565b600060208201905061162160008301846115fd565b92915050565b600080fd5b600080fd5b6000819050919050565b61164481611631565b811461164f57600080fd5b50565b6000813590506116618161163b565b92915050565b60006020828403121561167d5761167c611627565b5b600061168b84828501611652565b91505092915050565b600081519050919050565b600082825260208201905092915050565b60005b838110156116ce5780820151818401526020810190506116b3565b60008484015250505050565b6000601f19601f8301169050919050565b60006116f682611694565b611700818561169f565b93506117108185602086016116b0565b611719816116da565b840191505092915050565b6000602082019050818103600083015261173e81846116eb565b905092915050565b61174f81611631565b82525050565b600060208201905061176a6000830184611746565b92915050565b600080fd5b600080fd5b600080fd5b60008083601f84011261179557611794611770565b5b8235905067ffffffffffffffff8111156117b2576117b1611775565b5b6020830191508360018202830111156117ce576117cd61177a565b5b9250929050565b6000806000604084860312156117ee576117ed611627565b5b60006117fc86828701611652565b935050602084013567ffffffffffffffff81111561181d5761181c61162c565b5b6118298682870161177f565b92509250509250925092565b7f4e487b7100000000000000000000000000000000000000000000000000000000600052602160045260246000fd5b6005811061187557611874611835565b5b50565b600081905061188682611864565b919050565b600061189682611878565b9050919050565b6118a68161188b565b82525050565b60006118b78261158d565b9050919050565b6118c7816118ac565b82525050565b600060c0820190506118e26000830189611746565b81810360208301526118f481886116eb565b9050611903604083018761189d565b818103606083015261191581866116eb565b905061192460808301856118be565b61193160a0830184611746565b979650505050505050565b600081519050919050565b600082825260208201905092915050565b6000819050602082019050919050565b600082825260208201905092915050565b600061198482611694565b61198e8185611968565b935061199e8185602086016116b0565b6119a7816116da565b840191505092915050565b60006119be8383611979565b905092915050565b6000602082019050919050565b60006119de8261193c565b6119e88185611947565b9350836020820285016119fa85611958565b8060005b85811015611a365784840389528151611a1785826119b2565b9450611a22836119c6565b925060208a019950506001810190506119fe565b50829750879550505050505092915050565b60006020820190508181036000830152611a6281846119d3565b905092915050565b611a73816118ac565b8114611a7e57600080fd5b50565b600081359050611a9081611a6a565b92915050565b60008060408385031215611aad57611aac611627565b5b6000611abb85828601611652565b9250506020611acc85828601611a81565b9150509250929050565b60008060408385031215611aed57611aec611627565b5b6000611afb85828601611652565b9250506020611b0c85828601611652565b9150509250929050565b60058110611b2357600080fd5b50565b600081359050611b3581611b16565b92915050565b600080600080600060608688031215611b5757611b56611627565b5b600086013567ffffffffffffffff811115611b7557611b7461162c565b5b611b818882890161177f565b95509550506020611b9488828901611b26565b935050604086013567ffffffffffffffff811115611bb557611bb461162c565b5b611bc18882890161177f565b92509250509295509295909350565b60008060208385031215611be757611be6611627565b5b600083013567ffffffffffffffff811115611c0557611c0461162c565b5b611c118582860161177f565b92509250509250929050565b600081519050919050565b600082825260208201905092915050565b6000819050602082019050919050565b611c52816118ac565b82525050565b611c6181611631565b82525050565b606082016000820151611c7d6000850182611c49565b506020820151611c906020850182611c49565b506040820151611ca36040850182611c58565b50505050565b6000611cb58383611c67565b60608301905092915050565b6000602082019050919050565b6000611cd982611c1d565b611ce38185611c28565b9350611cee83611c39565b8060005b83811015611d1f578151611d068882611ca9565b9750611d1183611cc1565b925050600181019050611cf2565b5085935050505092915050565b60006020820190508181036000830152611d468184611cce565b905092915050565b60038110611d5f57611d5e611835565b5b50565b6000819050611d7082611d4e565b919050565b6000611d8082611d62565b9050919050565b611d9081611d75565b82525050565b6000606082019050611dab6000830186611746565b8181036020830152611dbd81856116eb565b9050611dcc6040830184611d87565b949350505050565b60038110611de157600080fd5b50565b600081359050611df381611dd4565b92915050565b60008060408385031215611e1057611e0f611627565b5b6000611e1e85828601611652565b9250506020611e2f85828601611de4565b9150509250929050565b7f4e487b7100000000000000000000000000000000000000000000000000000000600052602260045260246000fd5b60006002820490506001821680611e8057607f821691505b602082108103611e9357611e92611e39565b5b50919050565b6000602082019050611eae60008301846118be565b92915050565b60008115159050919050565b611ec981611eb4565b8114611ed457600080fd5b50565b600081519050611ee681611ec0565b92915050565b600060208284031215611f0257611f01611627565b5b6000611f1084828501611ed7565b91505092915050565b7f4e6f7420617574686f72697a65643a20546563686e696369616e206f6e6c7900600082015250565b6000611f4f601f8361169f565b9150611f5a82611f19565b602082019050919050565b60006020820190508181036000830152611f7e81611f42565b9050919050565b600082905092915050565b7f4e487b7100000000000000000000000000000000000000000000000000000000600052604160045260246000fd5b60008190508160005260206000209050919050565b60006020601f8301049050919050565b600082821b905092915050565b6000600883026120217fffffffffffffffffffffffffffffffffffffffffffffffffffffffffffffffff82611fe4565b61202b8683611fe4565b95508019841693508086168417925050509392505050565b600061205e61205961205484611631565b6115ad565b611631565b9050919050565b6000819050919050565b61207883612043565b61208c61208482612065565b848454611ff1565b825550505050565b600090565b6120a1612094565b6120ac81848461206f565b505050565b5b818110156120d0576120c5600082612099565b6001810190506120b2565b5050565b601f821115612115576120e681611fbf565b6120ef84611fd4565b810160208510156120fe578190505b61211261210a85611fd4565b8301826120b1565b50505b505050565b600082821c905092915050565b60006121386000198460080261211a565b1980831691505092915050565b60006121518383612127565b9150826002028217905092915050565b61216b8383611f85565b67ffffffffffffffff81111561218457612183611f90565b5b61218e8254611e68565b6121998282856120d4565b6000601f8311600181146121c857600084156121b6578287013590505b6121c08582612145565b865550612228565b601f1984166121d686611fbf565b60005b828110156121fe578489013582556001820191506020850194506020810190506121d9565b8683101561221b5784890135612217601f891682612127565b8355505b6001600288020188555050505b50505050505050565b82818337600083830152505050565b600061224c838561169f565b9350612259838584612231565b612262836116da565b840190509392505050565b60006040820190508181036000830152612288818587612240565b90506122976020830184611746565b949350505050565b7f4e6f7420617574686f72697a65643a20496e76657374696761746f72206f6e6c60008201527f7900000000000000000000000000000000000000000000000000000000000000602082015250565b60006122fb60218361169f565b91506123068261229f565b604082019050919050565b6000602082019050818103600083015261232a816122ee565b9050919050565b7f496e76616c696420636173650000000000000000000000000000000000000000600082015250565b6000612367600c8361169f565b915061237282612331565b602082019050919050565b600060208201905081810360008301526123968161235a565b9050919050565b7f596f7520646f206e6f74206861766520637573746f6479206f6620746869732060008201527f65766964656e6365000000000000000000000000000000000000000000000000602082015250565b60006123f960288361169f565b91506124048261239d565b604082019050919050565b60006020820190508181036000830152612428816123ec565b9050919050565b7f4361736520646f6573206e6f7420657869737400000000000000000000000000600082015250565b600061246560138361169f565b91506124708261242f565b602082019050919050565b6000602082019050818103600083015261249481612458565b9050919050565b7f45766964656e636520646f6573206e6f74206578697374000000000000000000600082015250565b60006124d160178361169f565b91506124dc8261249b565b602082019050919050565b60006020820190508181036000830152612500816124c4565b9050919050565b7f4e487b7100000000000000000000000000000000000000000000000000000000600052601160045260246000fd5b600061254182611631565b91507fffffffffffffffffffffffffffffffffffffffffffffffffffffffffffffffff820361257357612572612507565b5b60018201905091905056fea2646970667358221220170e29bfc4795c88337844e642ac0e3c89d8f798768bb30a3dae166208c6a08464736f6c63430008140033",
  "linkReferences": {},
  "deployedLinkReferences": {}
}