{
  "_format": "hh-sol-artifact-1",
  "contractName": "EvidenceRegistry",
  "sourceName": "contracts/EvidenceRegistry.sol",
  "abi": [
    {
      "inputs": [
        {
          "internalType": "address",
          "name": "_roleManager",
          "type": "address"
        }
      ],
      "stateMutability": "nonpayable",
      "type": "constructor"
    },
    {
      "anonymous": false,
      "inputs": [
        {
          "indexed": true,
          "internalType": "uint256",
          "name": "caseId",
          "type": "uint256"
        },
        {
          "indexed": false,
          "internalType": "string",
          "name": "title",
          "type": "string"
        },
        {
          "indexed": false,
          "internalType": "uint256",
          "name": "timestamp",
          "type": "uint256"
        }
      ],
      "name": "CaseCreated",
      "type": "event"
    },
    {
      "anonymous": false,
      "inputs": [
        {
          "indexed": true,
          "internalType": "uint256",
          "name": "evidenceId",
          "type": "uint256"
        },
        {
          "indexed": true,
          "internalType": "address",
          "name": "from",
          "type": "address"
        },
        {
          "indexed": true,
          "internalType": "address",
          "name": "to",
          "type": "address"
        },
        {
          "indexed": false,
          "internalType": "uint256",
          "name": "timestamp",
          "type": "uint256"
        }
      ],
      "name": "CustodyTransferred",
      "type": "event"
    },
    {
      "anonymous": false,
      "inputs": [
        {
          "indexed": true,
          "internalType": "uint256",
          "name": "caseId",
          "type": "uint256"
        },
        {
          "indexed": true,
          "internalType": "uint256",
          "name": "evidenceId",
          "type": "uint256"
        }
      ],
      "name": "EvidenceLinkedToCase",
      "type": "event"
    },
    {
      "anonymous": false,
      "inputs": [
        {
          "indexed": true,
          "internalType": "uint256",
          "name": "evidenceId",
          "type": "uint256"
        },
        {
          "indexed": true,
          "internalType": "address",
          "name": "investigator",
          "type": "address"
        },
        {
          "indexed": false,
          "internalType": "uint256",
          "name": "timestamp",
          "type": "uint256"
        }
      ],
      "name": "EvidenceRegistered",
      "type": "event"
    },
    {
      "anonymous": false,
      "inputs": [
        {
          "indexed": true,
          "internalType": "uint256",
          "name": "evidenceId",
          "type": "uint256"
        },
        {
          "indexed": false,
          "internalType": "string",
          "name": "ipfsHash",
          "type": "string"
        },
        {
          "indexed": true,
          "internalType": "address",
          "name": "technician",
          "type": "address"
        },
        {
          "indexed": false,
          "internalType": "uint256",
          "name": "timestamp",
          "type": "uint256"
        }
      ],
      "name": "LabReportAdded",
      "type": "event"
    },
    {
      "inputs": [
        {
          "internalType": "uint256",
          "name": "caseId",
          "type": "uint256"
        },
        {
          "internalType": "string",
          "name": "note",
          "type": "string"
        }
      ],
      "name": "addCaseNote",
      "outputs": [],
      "stateMutability": "nonpayable",
      "type": "function"
    },
    {
      "inputs": [
        {
          "internalType": "uint256",
          "name": "evidenceId",
          "type": "uint256"
        },
        {
          "internalType": "string",
          "name": "ipfsHash",
          "type": "string"
        }
      ],
      "name": "addLabReport",
      "outputs": [],
      "stateMutability": "nonpayable",
      "type": "function"
    },
    {
      "inputs": [
        {
          "internalType": "uint256",
          "name": "",
          "type": "uint256"
        }
      ],
      "name": "cases",
      "outputs": [
        {
          "internalType": "uint256",
          "name": "caseId",
          "type": "uint256"
        },
        {
          "internalType": "string",
          "name": "title",
          "type": "string"
        },
        {
          "internalType": "enum EvidenceRegistry.CaseStatus",
          "name": "status",
          "type": "uint8"
        }
      ],
      "stateMutability": "view",
      "type": "function"
    },
    {
      "inputs": [
        {
          "internalType": "string",
          "name": "title",
          "type": "string"
        }
      ],
      "name": "createCase",
      "outputs": [],
      "stateMutability": "nonpayable",
      "type": "function"
    },
    {
      "inputs": [
        {
          "internalType": "uint256",
          "name": "",
          "type": "uint256"
        }
      ],
      "name": "evidences",
      "outputs": [
        {
          "internalType": "uint256",
          "name": "id",
          "type": "uint256"
        },
        {
          "internalType": "string",
          "name": "description",
          "type": "string"
        },
        {
          "internalType": "enum EvidenceRegistry.EvidenceType",
          "name": "evidenceType",
          "type": "uint8"
        },
        {
          "internalType": "string",
          "name": "ipfsHash",
          "type": "string"
        },
        {
          "internalType": "address",
          "name": "currentHolder",
          "type": "address"
        },
        {
          "internalType": "uint256",
          "name": "timestampCreated",
          "type": "uint256"
        }
      ],
      "stateMutability": "view",
      "type": "function"
    },
    {
      "inputs": [
        {
          "internalType": "uint256",
          "name": "caseId",
          "type": "uint256"
        }
      ],
      "name": "getCaseEvidence",
      "outputs": [
        {
          "internalType": "uint256[]",
          "name": "",
          "type": "uint256[]"
        }
      ],
      "stateMutability": "view",
      "type": "function"
    },
    {
      "inputs": [
        {
          "internalType": "uint256",
          "name": "caseId",
          "type": "uint256"
        }
      ],
      "name": "getCaseFull",
      "outputs": [
        {
          "internalType": "uint256",
          "name": "id",
          "type": "uint256"
        },
        {
          "internalType": "string",
          "name": "title",
          "type": "string"
        },
        {
          "internalType": "enum EvidenceRegistry.CaseStatus",
          "name": "status",
          "type": "uint8"
        },
        {
          "internalType": "uint256[]",
          "name": "evidenceIds",
          "type": "uint256[]"
        },
        {
          "internalType": "string[]",
          "name": "notes",
          "type": "string[]"
        }
      ],
      "stateMutability": "view",
      "type": "function"
    },
    {
      "inputs": [
        {
          "internalType": "uint256",
          "name": "caseId",
          "type": "uint256"
        }
      ],
      "name": "getCaseNotes",
      "outputs": [
        {
          "internalType": "string[]",
          "name": "",
          "type": "string[]"
        }
      ],
      "stateMutability": "view",
      "type": "function"
    },
    {
      "inputs": [
        {
          "internalType": "uint256",
          "name": "evidenceId",
          "type": "uint256"
        }
      ],
      "name": "getCustodyHistory",
      "outputs": [
        {
          "components": [
            {
              "internalType": "address",
              "name": "from",
              "type": "address"
            },
            {
              "internalType": "address",
              "name": "to",
              "type": "address"
            },
            {
              "internalType": "uint256",
              "name": "timestamp",
              "type": "uint256"
            }
          ],
          "internalType": "struct EvidenceRegistry.CustodyRecord[]",
          "name": "",
          "type": "tuple[]"
        }
      ],
      "stateMutability": "view",
      "type": "function"
    },
    {
      "inputs": [
        {
          "internalType": "uint256",
          "name": "evidenceId",
          "type": "uint256"
        }
      ],
      "name": "getEvidenceHash",
      "outputs": [
        {
          "internalType": "string",
          "name": "",
          "type": "string"
        }
      ],
      "stateMutability": "view",
      "type": "function"
    },
    {
      "inputs": [
        {
          "internalType": "uint256",
          "name": "evidenceId",
          "type": "uint256"
        }
      ],
      "name": "getLabReports",
      "outputs": [
        {
          "internalType": "string[]",
          "name": "",
          "type": "string[]"
        }
      ],
      "stateMutability": "view",
      "type": "function"
    },
    {
      "inputs": [
        {
          "internalType": "uint256",
          "name": "caseId",
          "type": "uint256"
        },
        {
          "internalType": "uint256",
          "name": "evidenceId",
          "type": "uint256"
        }
      ],
      "name": "linkEvidenceToCase",
      "outputs": [],
      "stateMutability": "nonpayable",
      "type": "function"
    },
    {
      "inputs": [],
      "name": "nextCaseId",
      "outputs": [
        {
          "internalType": "uint256",
          "name": "",
          "type": "uint256"
        }
      ],
      "stateMutability": "view",
      "type": "function"
    },
    {
      "inputs": [],
      "name": "nextEvidenceId",
      "outputs": [
        {
          "internalType": "uint256",
          "name": "",
          "type": "uint256"
        }
      ],
      "stateMutability": "view",
      "type": "function"
    },
    {
      "inputs": [
        {
          "internalType": "string",
          "name": "description",
          "type": "string"
        },
        {
          "internalType": "uint8",
          "name": "evidenceType",
          "type": "uint8"
        },
        {
          "internalType": "string",
          "name": "ipfsHash",
          "type": "string"
        }
      ],
      "name": "registerEvidence",
      "outputs": [],
      "stateMutability": "nonpayable",
      "type": "function"
    },
    {
      "inputs": [],
      "name": "roleManager",
      "outputs": [
        {
          "internalType": "contract RoleManager",
          "name": "",
          "type": "address"
        }
      ],
      "stateMutability": "view",
      "type": "function"
    },
    {
      "inputs": [
        {
          "internalType": "uint256",
          "name": "caseId",
          "type": "uint256"
        },
        {
          "internalType": "enum EvidenceRegistry.CaseStatus",
          "name": "status",
          "type": "uint8"
        }
      ],
      "name": "setCaseStatus",
      "outputs": [],
      "stateMutability": "nonpayable",
      "type": "function"
    },
    {
      "inputs": [
        {
          "internalType": "uint256",
          "name": "evidenceId",
          "type": "uint256"
        },
        {
          "internalType": "address",
          "name": "newHolder",
          "type": "address"
        }
      ],
      "name": "transferCustody",
      "outputs": [],
      "stateMutability": "nonpayable",
      "type": "function"
    }
  ],
  "bytecode": "0x60806040523480156200001157600080fd5b5060405162002e1838038062002e188339818101604052810190620000379190620000e8565b806000806101000a81548173ffffffffffffffffffffffffffffffffffffffff021916908373ffffffffffffffffffffffffffffffffffffffff160217905550506200011a565b600080fd5b600073ffffffffffffffffffffffffffffffffffffffff82169050919050565b6000620000b08262000083565b9050919050565b620000c281620000a3565b8114620000ce57600080fd5b50565b600081519050620000e281620000b7565b92915050565b6000602082840312156200010157620001006200007e565b5b60006200011184828501620000d1565b91505092915050565b612cee806200012a6000396000f3fe608060405234801561001057600080fd5b50600436106101155760003560e01c80636350eae8116100a2578063be0f42e511610071578063be0f42e51461030d578063d0d10af114610329578063d75af31e14610345578063f09790dd14610375578063ff499a72146103a757610115565b80636350eae8146102875780637d010e78146102a5578063815fc9bb146102d557806388f1ea63146102f157610115565b80632ac3244f116100e95780632ac3244f146101ba5780632e4546cd146101d657806337786b311461020b5780633e5c37eb1461023b5780635d1d18ee1461025757610115565b8062435da51461011a57806306c45f9e146101385780631b71c66b1461016857806329caec321461019c575b600080fd5b6101226103c3565b60405161012f9190611a35565b60405180910390f35b610152600480360381019061014d9190611a9a565b6103e7565b60405161015f9190611b57565b60405180910390f35b610182600480360381019061017d9190611a9a565b61048f565b604051610193959493929190611dc9565b60405180910390f35b6101a4610697565b6040516101b19190611e31565b60405180910390f35b6101d460048036038101906101cf9190611eb1565b61069d565b005b6101f060048036038101906101eb9190611a9a565b610820565b60405161020296959493929190611f7a565b60405180910390f35b61022560048036038101906102209190611a9a565b610999565b6040516102329190611fe9565b60405180910390f35b61025560048036038101906102509190611eb1565b610a07565b005b610271600480360381019061026c9190611a9a565b610b7b565b60405161027e919061200b565b60405180910390f35b61028f610c6a565b60405161029c9190611e31565b60405180910390f35b6102bf60048036038101906102ba9190611a9a565b610c70565b6040516102cc919061200b565b60405180910390f35b6102ef60048036038101906102ea9190612059565b610d5f565b005b61030b60048036038101906103069190612099565b611020565b005b61032760048036038101906103229190612242565b6111f0565b005b610343600480360381019061033e91906122cd565b61151a565b005b61035f600480360381019061035a9190611a9a565b6116b1565b60405161036c919061241a565b60405180910390f35b61038f600480360381019061038a9190611a9a565b6117dc565b60405161039e9392919061243c565b60405180910390f35b6103c160048036038101906103bc919061249f565b61189b565b005b60008054906101000a900473ffffffffffffffffffffffffffffffffffffffff1681565b606060036000838152602001908152602001600020600301805461040a9061250e565b80601f01602080910402602001604051908101604052809291908181526020018280546104369061250e565b80156104835780601f1061045857610100808354040283529160200191610483565b820191906000526020600020905b81548152906001019060200180831161046657829003601f168201915b50505050509050919050565b60006060600060608060006004600088815260200190815260200160002090508060000154816001018260020160009054906101000a900460ff1683600301846004018380546104de9061250e565b80601f016020809104026020016040519081016040528092919081815260200182805461050a9061250e565b80156105575780601f1061052c57610100808354040283529160200191610557565b820191906000526020600020905b81548152906001019060200180831161053a57829003601f168201915b50505050509350818054806020026020016040519081016040528092919081815260200182805480156105a957602002820191906000526020600020905b815481526020019060010190808311610595575b5050505050915080805480602002602001604051908101604052809291908181526020016000905b8282101561067d5783829060005260206000200180546105f09061250e565b80601f016020809104026020016040519081016040528092919081815260200182805461061c9061250e565b80156106695780601f1061063e57610100808354040283529160200191610669565b820191906000526020600020905b81548152906001019060200180831161064c57829003601f168201915b5050505050815260200190600101906105d1565b505050509050955095509550955095505091939590929450565b60015481565b60008054906101000a900473ffffffffffffffffffffffffffffffffffffffff1673ffffffffffffffffffffffffffffffffffffffff16630f5b76fa336040518263ffffffff1660e01b81526004016106f6919061253f565b602060405180830381865afa158015610713573d6000803e3d6000fd5b505050506040513d601f19601f820116820180604052508101906107379190612592565b610776576040517f08c379a000000000000000000000000000000000000000000000000000000000815260040161076d9061260b565b60405180910390fd5b600360008481526020019081526020016000206006018282909180600181540180825580915050600190039060005260206000200160009091929091929091929091925091826107c79291906127d8565b503373ffffffffffffffffffffffffffffffffffffffff16837f0a76c1552f6ca3836f10df781505e49b0fa8c29ecbad4e24b64d43be73ec55b3848442604051610813939291906128d5565b60405180910390a3505050565b60036020528060005260406000206000915090508060000154908060010180546108499061250e565b80601f01602080910402602001604051908101604052809291908181526020018280546108759061250e565b80156108c25780601f10610897576101008083540402835291602001916108c2565b820191906000526020600020905b8154815290600101906020018083116108a557829003601f168201915b5050505050908060020160009054906101000a900460ff16908060030180546108ea9061250e565b80601f01602080910402602001604051908101604052809291908181526020018280546109169061250e565b80156109635780601f1061093857610100808354040283529160200191610963565b820191906000526020600020905b81548152906001019060200180831161094657829003601f168201915b5050505050908060040160009054906101000a900473ffffffffffffffffffffffffffffffffffffffff16908060050154905086565b6060600460008381526020019081526020016000206003018054806020026020016040519081016040528092919081815260200182805480156109fb57602002820191906000526020600020905b8154815260200190600101908083116109e7575b50505050509050919050565b60008054906101000a900473ffffffffffffffffffffffffffffffffffffffff1673ffffffffffffffffffffffffffffffffffffffff16637cb76b8b336040518263ffffffff1660e01b8152600401610a60919061253f565b602060405180830381865afa158015610a7d573d6000803e3d6000fd5b505050506040513d601f19601f82011682018060405250810190610aa19190612592565b610ae0576040517f08c379a0000000000000000000000000000000000000000000000000000000008152600401610ad790612979565b60405180910390fd5b6002548310610b24576040517f08c379a0000000000000000000000000000000000000000000000000000000008152600401610b1b906129e5565b60405180910390fd5b60046000848152602001908152602001600020600401828290918060018154018082558091505060019003906000526020600020016000909192909192909192909192509182610b759291906127d8565b50505050565b606060046000838152602001908152602001600020600401805480602002602001604051908101604052809291908181526020016000905b82821015610c5f578382906000526020600020018054610bd29061250e565b80601f0160208091040260200160405190810160405280929190818152602001828054610bfe9061250e565b8015610c4b5780601f10610c2057610100808354040283529160200191610c4b565b820191906000526020600020905b815481529060010190602001808311610c2e57829003601f168201915b505050505081526020019060010190610bb3565b505050509050919050565b60025481565b606060036000838152602001908152602001600020600601805480602002602001604051908101604052809291908181526020016000905b82821015610d54578382906000526020600020018054610cc79061250e565b80601f0160208091040260200160405190810160405280929190818152602001828054610cf39061250e565b8015610d405780601f10610d1557610100808354040283529160200191610d40565b820191906000526020600020905b815481529060010190602001808311610d2357829003601f168201915b505050505081526020019060010190610ca8565b505050509050919050565b813373ffffffffffffffffffffffffffffffffffffffff166003600083815260200190815260200160002060040160009054906101000a900473ffffffffffffffffffffffffffffffffffffffff1673ffffffffffffffffffffffffffffffffffffffff1614610e04576040517f08c379a0000000000000000000000000000000000000000000000000000000008152600401610dfb90612a77565b60405180910390fd5b60006003600085815260200190815260200160002060040160009054906101000a900473ffffffffffffffffffffffffffffffffffffffff169050826003600086815260200190815260200160002060040160006101000a81548173ffffffffffffffffffffffffffffffffffffffff021916908373ffffffffffffffffffffffffffffffffffffffff1602179055506003600085815260200190815260200160002060070160405180606001604052808373ffffffffffffffffffffffffffffffffffffffff1681526020018573ffffffffffffffffffffffffffffffffffffffff16815260200142815250908060018154018082558091505060019003906000526020600020906003020160009091909190915060008201518160000160006101000a81548173ffffffffffffffffffffffffffffffffffffffff021916908373ffffffffffffffffffffffffffffffffffffffff16021790555060208201518160010160006101000a81548173ffffffffffffffffffffffffffffffffffffffff021916908373ffffffffffffffffffffffffffffffffffffffff1602179055506040820151816002015550508273ffffffffffffffffffffffffffffffffffffffff168173ffffffffffffffffffffffffffffffffffffffff16857f55f940726e9a2689d79bf3c29305c07b4df0134b15e5e06e78894b2d2fea3236426040516110129190611e31565b60405180910390a450505050565b60008054906101000a900473ffffffffffffffffffffffffffffffffffffffff1673ffffffffffffffffffffffffffffffffffffffff16637cb76b8b336040518263ffffffff1660e01b8152600401611079919061253f565b602060405180830381865afa158015611096573d6000803e3d6000fd5b505050506040513d601f19601f820116820180604052508101906110ba9190612592565b6110f9576040517f08c379a00000000000000000000000000000000000000000000000000000000081526004016110f090612979565b60405180910390fd5b600254821061113d576040517f08c379a000000000000000000000000000000000000000000000000000000000815260040161113490612ae3565b60405180910390fd5b6001548110611181576040517f08c379a000000000000000000000000000000000000000000000000000000000815260040161117890612b4f565b60405180910390fd5b6004600083815260200190815260200160002060030181908060018154018082558091505060019003906000526020600020016000909190919091505580827feb65f4f2f73c335b43ea79820d94346fce84e07f2175c13bcfe8d99fd955cd7860405160405180910390a35050565b60008054906101000a900473ffffffffffffffffffffffffffffffffffffffff1673ffffffffffffffffffffffffffffffffffffffff16637cb76b8b336040518263ffffffff1660e01b8152600401611249919061253f565b602060405180830381865afa158015611266573d6000803e3d6000fd5b505050506040513d601f19601f8201168201806040525081019061128a9190612592565b6112c9576040517f08c379a00000000000000000000000000000000000000000000000000000000081526004016112c090612979565b60405180910390fd5b6000600160008154809291906112de90612b9e565b9190505590506000600360008381526020019081526020016000209050818160000181905550848160010190816113159190612be6565b508360ff16600481111561132c5761132b611b88565b5b8160020160006101000a81548160ff0219169083600481111561135257611351611b88565b5b0217905550828160030190816113689190612be6565b50338160040160006101000a81548173ffffffffffffffffffffffffffffffffffffffff021916908373ffffffffffffffffffffffffffffffffffffffff160217905550428160050181905550806007016040518060600160405280600073ffffffffffffffffffffffffffffffffffffffff1681526020013373ffffffffffffffffffffffffffffffffffffffff16815260200142815250908060018154018082558091505060019003906000526020600020906003020160009091909190915060008201518160000160006101000a81548173ffffffffffffffffffffffffffffffffffffffff021916908373ffffffffffffffffffffffffffffffffffffffff16021790555060208201518160010160006101000a81548173ffffffffffffffffffffffffffffffffffffffff021916908373ffffffffffffffffffffffffffffffffffffffff1602179055506040820151816002015550503373ffffffffffffffffffffffffffffffffffffffff16827fae9b1a9355724d1f69b7ebc424e20b5fd8ab72ca431842ae489d81f54949e5cc4260405161150b9190611e31565b60405180910390a35050505050565b60008054906101000a900473ffffffffffffffffffffffffffffffffffffffff1673ffffffffffffffffffffffffffffffffffffffff16637cb76b8b336040518263ffffffff1660e01b8152600401611573919061253f565b602060405180830381865afa158015611590573d6000803e3d6000fd5b505050506040513d601f19601f820116820180604052508101906115b49190612592565b6115f3576040517f08c379a00000000000000000000000000000000000000000000000000000000081526004016115ea90612979565b60405180910390fd5b60006002600081548092919061160890612b9e565b919050559050600060046000838152602001908152602001600020905081816000018190555083838260010191826116419291906127d8565b5060008160020160006101000a81548160ff0219169083600281111561166a57611669611b88565b5b0217905550817fd904444d665098d4a571393e9f8c559e3846d0da99d10a5056466b8665d988238585426040516116a3939291906128d5565b60405180910390a250505050565b606060036000838152602001908152602001600020600701805480602002602001604051908101604052809291908181526020016000905b828210156117d157838290600052602060002090600302016040518060600160405290816000820160009054906101000a900473ffffffffffffffffffffffffffffffffffffffff1673ffffffffffffffffffffffffffffffffffffffff1673ffffffffffffffffffffffffffffffffffffffff1681526020016001820160009054906101000a900473ffffffffffffffffffffffffffffffffffffffff1673ffffffffffffffffffffffffffffffffffffffff1673ffffffffffffffffffffffffffffffffffffffff168152602001600282015481525050815260200190600101906116e9565b505050509050919050565b60046020528060005260406000206000915090508060000154908060010180546118059061250e565b80601f01602080910402602001604051908101604052809291908181526020018280546118319061250e565b801561187e5780601f106118535761010080835404028352916020019161187e565b820191906000526020600020905b81548152906001019060200180831161186157829003601f168201915b5050505050908060020160009054906101000a900460ff16905083565b60008054906101000a900473ffffffffffffffffffffffffffffffffffffffff1673ffffffffffffffffffffffffffffffffffffffff16637cb76b8b336040518263ffffffff1660e01b81526004016118f4919061253f565b602060405180830381865afa158015611911573d6000803e3d6000fd5b505050506040513d601f19601f820116820180604052508101906119359190612592565b611974576040517f08c379a000000000000000000000000000000000000000000000000000000000815260040161196b90612979565b60405180910390fd5b806004600084815260200190815260200160002060020160006101000a81548160ff021916908360028111156119ad576119ac611b88565b5b02179055505050565b600073ffffffffffffffffffffffffffffffffffffffff82169050919050565b6000819050919050565b60006119fb6119f66119f1846119b6565b6119d6565b6119b6565b9050919050565b6000611a0d826119e0565b9050919050565b6000611a1f82611a02565b9050919050565b611a2f81611a14565b82525050565b6000602082019050611a4a6000830184611a26565b92915050565b6000604051905090565b600080fd5b600080fd5b6000819050919050565b611a7781611a64565b8114611a8257600080fd5b50565b600081359050611a9481611a6e565b92915050565b600060208284031215611ab057611aaf611a5a565b5b6000611abe84828501611a85565b91505092915050565b600081519050919050565b600082825260208201905092915050565b60005b83811015611b01578082015181840152602081019050611ae6565b60008484015250505050565b6000601f19601f8301169050919050565b6000611b2982611ac7565b611b338185611ad2565b9350611b43818560208601611ae3565b611b4c81611b0d565b840191505092915050565b60006020820190508181036000830152611b718184611b1e565b905092915050565b611b8281611a64565b82525050565b7f4e487b7100000000000000000000000000000000000000000000000000000000600052602160045260246000fd5b60038110611bc857611bc7611b88565b5b50565b6000819050611bd982611bb7565b919050565b6000611be982611bcb565b9050919050565b611bf981611bde565b82525050565b600081519050919050565b600082825260208201905092915050565b6000819050602082019050919050565b611c3481611a64565b82525050565b6000611c468383611c2b565b60208301905092915050565b6000602082019050919050565b6000611c6a82611bff565b611c748185611c0a565b9350611c7f83611c1b565b8060005b83811015611cb0578151611c978882611c3a565b9750611ca283611c52565b925050600181019050611c83565b5085935050505092915050565b600081519050919050565b600082825260208201905092915050565b6000819050602082019050919050565b600082825260208201905092915050565b6000611d0582611ac7565b611d0f8185611ce9565b9350611d1f818560208601611ae3565b611d2881611b0d565b840191505092915050565b6000611d3f8383611cfa565b905092915050565b6000602082019050919050565b6000611d5f82611cbd565b611d698185611cc8565b935083602082028501611d7b85611cd9565b8060005b85811015611db75784840389528151611d988582611d33565b9450611da383611d47565b925060208a01995050600181019050611d7f565b50829750879550505050505092915050565b600060a082019050611dde6000830188611b79565b8181036020830152611df08187611b1e565b9050611dff6040830186611bf0565b8181036060830152611e118185611c5f565b90508181036080830152611e258184611d54565b90509695505050505050565b6000602082019050611e466000830184611b79565b92915050565b600080fd5b600080fd5b600080fd5b60008083601f840112611e7157611e70611e4c565b5b8235905067ffffffffffffffff811115611e8e57611e8d611e51565b5b602083019150836001820283011115611eaa57611ea9611e56565b5b9250929050565b600080600060408486031215611eca57611ec9611a5a565b5b6000611ed886828701611a85565b935050602084013567ffffffffffffffff811115611ef957611ef8611a5f565b5b611f0586828701611e5b565b92509250509250925092565b60058110611f2257611f21611b88565b5b50565b6000819050611f3382611f11565b919050565b6000611f4382611f25565b9050919050565b611f5381611f38565b82525050565b6000611f64826119b6565b9050919050565b611f7481611f59565b82525050565b600060c082019050611f8f6000830189611b79565b8181036020830152611fa18188611b1e565b9050611fb06040830187611f4a565b8181036060830152611fc28186611b1e565b9050611fd16080830185611f6b565b611fde60a0830184611b79565b979650505050505050565b600060208201905081810360008301526120038184611c5f565b905092915050565b600060208201905081810360008301526120258184611d54565b905092915050565b61203681611f59565b811461204157600080fd5b50565b6000813590506120538161202d565b92915050565b600080604083850312156120705761206f611a5a565b5b600061207e85828601611a85565b925050602061208f85828601612044565b9150509250929050565b600080604083850312156120b0576120af611a5a565b5b60006120be85828601611a85565b92505060206120cf85828601611a85565b9150509250929050565b600080fd5b7f4e487b7100000000000000000000000000000000000000000000000000000000600052604160045260246000fd5b61211682611b0d565b810181811067ffffffffffffffff82111715612135576121346120de565b5b80604052505050565b6000612148611a50565b9050612154828261210d565b919050565b600067ffffffffffffffff821115612174576121736120de565b5b61217d82611b0d565b9050602081019050919050565b82818337600083830152505050565b60006121ac6121a784612159565b61213e565b9050828152602081018484840111156121c8576121c76120d9565b5b6121d384828561218a565b509392505050565b600082601f8301126121f0576121ef611e4c565b5b8135612200848260208601612199565b91505092915050565b600060ff82169050919050565b61221f81612209565b811461222a57600080fd5b50565b60008135905061223c81612216565b92915050565b60008060006060848603121561225b5761225a611a5a565b5b600084013567ffffffffffffffff81111561227957612278611a5f565b5b612285868287016121db565b93505060206122968682870161222d565b925050604084013567ffffffffffffffff8111156122b7576122b6611a5f565b5b6122c3868287016121db565b9150509250925092565b600080602083850312156122e4576122e3611a5a565b5b600083013567ffffffffffffffff81111561230257612301611a5f565b5b61230e85828601611e5b565b92509250509250929050565b600081519050919050565b600082825260208201905092915050565b6000819050602082019050919050565b61234f81611f59565b82525050565b60608201600082015161236b6000850182612346565b50602082015161237e6020850182612346565b5060408201516123916040850182611c2b565b50505050565b60006123a38383612355565b60608301905092915050565b6000602082019050919050565b60006123c78261231a565b6123d18185612325565b93506123dc83612336565b8060005b8381101561240d5781516123f48882612397565b97506123ff836123af565b9250506001810190506123e0565b5085935050505092915050565b6000602082019050818103600083015261243481846123bc565b905092915050565b60006060820190506124516000830186611b79565b81810360208301526124638185611b1e565b90506124726040830184611bf0565b949350505050565b6003811061248757600080fd5b50565b6000813590506124998161247a565b92915050565b600080604083850312156124b6576124b5611a5a565b5b60006124c485828601611a85565b92505060206124d58582860161248a565b9150509250929050565b7f4e487b7100000000000000000000000000000000000000000000000000000000600052602260045260246000fd5b6000600282049050600182168061252657607f821691505b602082108103612539576125386124df565b5b50919050565b60006020820190506125546000830184611f6b565b92915050565b60008115159050919050565b61256f8161255a565b811461257a57600080fd5b50565b60008151905061258c81612566565b92915050565b6000602082840312156125a8576125a7611a5a565b5b60006125b68482850161257d565b91505092915050565b7f4e6f7420617574686f72697a65643a20546563686e696369616e206f6e6c7900600082015250565b60006125f5601f83611ad2565b9150612600826125bf565b602082019050919050565b60006020820190508181036000830152612624816125e8565b9050919050565b600082905092915050565b60008190508160005260206000209050919050565b60006020601f8301049050919050565b600082821b905092915050565b6000600883026126987fffffffffffffffffffffffffffffffffffffffffffffffffffffffffffffffff8261265b565b6126a2868361265b565b95508019841693508086168417925050509392505050565b60006126d56126d06126cb84611a64565b6119d6565b611a64565b9050919050565b6000819050919050565b6126ef836126ba565b6127036126fb826126dc565b848454612668565b825550505050565b600090565b61271861270b565b6127238184846126e6565b505050565b5b818110156127475761273c600082612710565b600181019050612729565b5050565b601f82111561278c5761275d81612636565b6127668461264b565b81016020851015612775578190505b6127896127818561264b565b830182612728565b50505b505050565b600082821c905092915050565b60006127af60001984600802612791565b1980831691505092915050565b60006127c8838361279e565b9150826002028217905092915050565b6127e2838361262b565b67ffffffffffffffff8111156127fb576127fa6120de565b5b612805825461250e565b61281082828561274b565b6000601f83116001811461283f576000841561282d578287013590505b61283785826127bc565b86555061289f565b601f19841661284d86612636565b60005b8281101561287557848901358255600182019150602085019450602081019050612850565b86831015612892578489013561288e601f89168261279e565b8355505b6001600288020188555050505b50505050505050565b60006128b48385611ad2565b93506128c183858461218a565b6128ca83611b0d565b840190509392505050565b600060408201905081810360008301526128f08185876128a8565b90506128ff6020830184611b79565b949350505050565b7f4e6f7420617574686f72697a65643a20496e76657374696761746f72206f6e6c60008201527f7900000000000000000000000000000000000000000000000000000000000000602082015250565b6000612963602183611ad2565b915061296e82612907565b604082019050919050565b6000602082019050818103600083015261299281612956565b9050919050565b7f496e76616c696420636173650000000000000000000000000000000000000000600082015250565b60006129cf600c83611ad2565b91506129da82612999565b602082019050919050565b600060208201905081810360008301526129fe816129c2565b9050919050565b7f596f7520646f206e6f74206861766520637573746f6479206f6620746869732060008201527f65766964656e6365000000000000000000000000000000000000000000000000602082015250565b6000612a61602883611ad2565b9150612a6c82612a05565b604082019050919050565b60006020820190508181036000830152612a9081612a54565b9050919050565b7f4361736520646f6573206e6f7420657869737400000000000000000000000000600082015250565b6000612acd601383611ad2565b9150612ad882612a97565b602082019050919050565b60006020820190508181036000830152612afc81612ac0565b9050919050565b7f45766964656e636520646f6573206e6f74206578697374000000000000000000600082015250565b6000612b39601783611ad2565b9150612b4482612b03565b602082019050919050565b60006020820190508181036000830152612b6881612b2c565b9050919050565b7f4e487b7100000000000000000000000000000000000000000000000000000000600052601160045260246000fd5b6000612ba982611a64565b91507fffffffffffffffffffffffffffffffffffffffffffffffffffffffffffffffff8203612bdb57612bda612b6f565b5b600182019050919050565b612bef82611ac7565b67ffffffffffffffff811115612c0857612c076120de565b5b612c12825461250e565b612c1d82828561274b565b600060209050601f831160018114612c505760008415612c3e578287015190505b612c4885826127bc565b865550612cb0565b601f198416612c5e86612636565b60005b82811015612c8657848901518255600182019150602085019450602081019050612c61565b86831015612ca35784890151612c9f601f89168261279e565b8355505b6001600288020188555050505b50505050505056fea2646970667358221220195785855e9806cab20ddc9ef12401454d5b78c738b0ae36e9ca075e6f65b24064736f6c63430008140033",
  "linkReferences": {},
  "deployedLinkReferences": {}
}