{
  "_format": "hh-sol-artifact-1",
  "contractName": "RoleManager",
  "sourceName": "contracts/RoleManager.sol",
  "abi": [
    {
      "inputs": [],
      "stateMutability": "nonpayable",
      "type": "constructor"
    },
    {
      "anonymous": false,
      "inputs": [
        {
          "indexed": true,
          "internalType": "address",
          "name": "account",
          "type": "address"
        }
      ],
      "name": "AdminAdded",
      "type": "event"
    },
    {
      "anonymous": false,
      "inputs": [
        {
          "indexed": true,
          "internalType": "address",
          "name": "account",
          "type": "address"
        }
      ],
      "name": "AdminRemoved",
      "type": "event"
    },
    {
      "anonymous": false,
      "inputs": [
        {
          "indexed": true,
          "internalType": "address",
          "name": "account",
          "type": "address"
        }
      ],
      "name": "InvestigatorAdded",
      "type": "event"
    },
    {
      "anonymous": false,
      "inputs": [
        {
          "indexed": true,
          "internalType": "address",
          "name": "account",
          "type": "address"
        }
      ],
      "name": "InvestigatorRemoved",
      "type": "event"
    },
    {
      "anonymous": false,
      "inputs": [
        {
          "indexed": true,
          "internalType": "address",
          "name": "account",
          "type": "address"
        }
      ],
      "name": "TechnicianAdded",
      "type": "event"
    },
    {
      "anonymous": false,
      "inputs": [
        {
          "indexed": true,
          "internalType": "address",
          "name": "account",
          "type": "address"
        }
      ],
      "name": "TechnicianRemoved",
      "type": "event"
    },
    {
      "inputs": [
        {
          "internalType": "address",
          "name": "account",
          "type": "address"
        }
      ],
      "name": "addAdmin",
      "outputs": [],
      "stateMutability": "nonpayable",
      "type": "function"
    },
    {
      "inputs": [
        {
          "internalType": "address",
          "name": "account",
          "type": "address"
        }
      ],
      "name": "addInvestigator",
      "outputs": [],
      "stateMutability": "nonpayable",
      "type": "function"
    },
    {
      "inputs": [
        {
          "internalType": "address",
          "name": "account",
          "type": "address"
        }
      ],
      "name": "addTechnician",
      "outputs": [],
      "stateMutability": "nonpayable",
      "type": "function"
    },
    {
      "inputs": [
        {
          "internalType": "address",
          "name": "account",
          "type": "address"
        }
      ],
      "name": "getRoles",
      "outputs": [
        {
          "internalType": "bool",
          "name": "admin",
          "type": "bool"
        },
        {
          "internalType": "bool",
          "name": "investigator",
          "type": "bool"
        },
        {
          "internalType": "bool",
          "name": "technician",
          "type": "bool"
        }
      ],
      "stateMutability": "view",
      "type": "function"
    },
    {
      "inputs": [
        {
          "internalType": "address",
          "name": "",
          "type": "address"
        }
      ],
      "name": "isAdmin",
      "outputs": [
        {
          "internalType": "bool",
          "name": "",
          "type": "bool"
        }
      ],
      "stateMutability": "view",
      "type": "function"
    },
    {
      "inputs": [
        {
          "internalType": "address",
          "name": "",
          "type": "address"
        }
      ],
      "name": "isInvestigator",
      "outputs": [
        {
          "internalType": "bool",
          "name": "",
          "type": "bool"
        }
      ],
      "stateMutability": "view",
      "type": "function"
    },
    {
      "inputs": [
        {
          "internalType": "address",
          "name": "",
          "type": "address"
        }
      ],
      "name": "isTechnician",
      "outputs": [
        {
          "internalType": "bool",
          "name": "",
          "type": "bool"
        }
      ],
      "stateMutability": "view",
      "type": "function"
    },
    {
      "inputs": [
        {
          "internalType": "address",
          "name": "account",
          "type": "address"
        }
      ],
      "name": "removeAdmin",
      "outputs": [],
      "stateMutability": "nonpayable",
      "type": "function"
    },
    {
      "inputs": [
        {
          "internalType": "address",
          "name": "account",
          "type": "address"
        }
      ],
      "name": "removeInvestigator",
      "outputs": [],
      "stateMutability": "nonpayable",
      "type": "function"
    },
    {
      "inputs": [
        {
          "internalType": "address",
          "name": "account",
          "type": "address"
        }
      ],
      "name": "removeTechnician",
      "outputs": [],
      "stateMutability": "nonpayable",
      "type": "function"
    },
    {
      "inputs": [],
      "name": "superAdmin",
      "outputs": [
        {
          "internalType": "address",
          "name": "",
          "type": "address"
        }
      ],
      "stateMutability": "view",
      "type": "function"
    }
  ],
  "bytecode": "0x608060405234801561001057600080fd5b50336000806101000a81548173ffffffffffffffffffffffffffffffffffffffff021916908373ffffffffffffffffffffffffffffffffffffffff16021790555060018060003373ffffffffffffffffffffffffffffffffffffffff1673ffffffffffffffffffffffffffffffffffffffff16815260200190815260200160002060006101000a81548160ff0219169083151502179055503373ffffffffffffffffffffffffffffffffffffffff167f44d6d25963f097ad14f29f06854a01f575648a1ef82f30e562ccd3889717e33960405160405180910390a261150e806100fa6000396000f3fe608060405234801561001057600080fd5b50600436106100a95760003560e01c806329575f6a1161007157806329575f6a146101625780634c5e3e8514610180578063704802751461019c5780637cb76b8b146101b8578063ce6ccfaf146101e8578063e5078ed71461021a576100a9565b806303537fba146100ae5780630bd429f2146100ca5780630f5b76fa146100e65780631785f53c1461011657806324d7806c14610132575b600080fd5b6100c860048036038101906100c39190611037565b610236565b005b6100e460048036038101906100df9190611037565b6103ec565b005b61010060048036038101906100fb9190611037565b610612565b60405161010d919061107f565b60405180910390f35b610130600480360381019061012b9190611037565b610632565b005b61014c60048036038101906101479190611037565b610876565b604051610159919061107f565b60405180910390f35b61016a610896565b60405161017791906110a9565b60405180910390f35b61019a60048036038101906101959190611037565b6108ba565b005b6101b660048036038101906101b19190611037565b610a70565b005b6101d260048036038101906101cd9190611037565b610c95565b6040516101df919061107f565b60405180910390f35b61020260048036038101906101fd9190611037565b610cb5565b604051610211939291906110c4565b60405180910390f35b610234600480360381019061022f9190611037565b610dae565b005b600160003373ffffffffffffffffffffffffffffffffffffffff1673ffffffffffffffffffffffffffffffffffffffff16815260200190815260200160002060009054906101000a900460ff166102c2576040517f08c379a00000000000000000000000000000000000000000000000000000000081526004016102b990611158565b60405180910390fd5b600360008273ffffffffffffffffffffffffffffffffffffffff1673ffffffffffffffffffffffffffffffffffffffff16815260200190815260200160002060009054906101000a900460ff1661034e576040517f08c379a0000000000000000000000000000000000000000000000000000000008152600401610345906111c4565b60405180910390fd5b6000600360008373ffffffffffffffffffffffffffffffffffffffff1673ffffffffffffffffffffffffffffffffffffffff16815260200190815260200160002060006101000a81548160ff0219169083151502179055508073ffffffffffffffffffffffffffffffffffffffff167f17e14ebaee620f0281267811685f90511b8d132bc882aa6e1c5187fb863bd60b60405160405180910390a250565b600160003373ffffffffffffffffffffffffffffffffffffffff1673ffffffffffffffffffffffffffffffffffffffff16815260200190815260200160002060009054906101000a900460ff16610478576040517f08c379a000000000000000000000000000000000000000000000000000000000815260040161046f90611158565b60405180910390fd5b600073ffffffffffffffffffffffffffffffffffffffff168173ffffffffffffffffffffffffffffffffffffffff16036104e7576040517f08c379a00000000000000000000000000000000000000000000000000000000081526004016104de90611230565b60405180910390fd5b600360008273ffffffffffffffffffffffffffffffffffffffff1673ffffffffffffffffffffffffffffffffffffffff16815260200190815260200160002060009054906101000a900460ff1615610574576040517f08c379a000000000000000000000000000000000000000000000000000000000815260040161056b9061129c565b60405180910390fd5b6001600360008373ffffffffffffffffffffffffffffffffffffffff1673ffffffffffffffffffffffffffffffffffffffff16815260200190815260200160002060006101000a81548160ff0219169083151502179055508073ffffffffffffffffffffffffffffffffffffffff167fff920bb3f069f0d9208ff4154dc80f2935be049857a155a0228557c70c13a3e960405160405180910390a250565b60036020528060005260406000206000915054906101000a900460ff1681565b600160003373ffffffffffffffffffffffffffffffffffffffff1673ffffffffffffffffffffffffffffffffffffffff16815260200190815260200160002060009054906101000a900460ff166106be576040517f08c379a00000000000000000000000000000000000000000000000000000000081526004016106b590611158565b60405180910390fd5b60008054906101000a900473ffffffffffffffffffffffffffffffffffffffff1673ffffffffffffffffffffffffffffffffffffffff168173ffffffffffffffffffffffffffffffffffffffff160361074c576040517f08c379a000000000000000000000000000000000000000000000000000000000815260040161074390611308565b60405180910390fd5b600160008273ffffffffffffffffffffffffffffffffffffffff1673ffffffffffffffffffffffffffffffffffffffff16815260200190815260200160002060009054906101000a900460ff166107d8576040517f08c379a00000000000000000000000000000000000000000000000000000000081526004016107cf90611374565b60405180910390fd5b6000600160008373ffffffffffffffffffffffffffffffffffffffff1673ffffffffffffffffffffffffffffffffffffffff16815260200190815260200160002060006101000a81548160ff0219169083151502179055508073ffffffffffffffffffffffffffffffffffffffff167fa3b62bc36326052d97ea62d63c3d60308ed4c3ea8ac079dd8499f1e9c4f80c0f60405160405180910390a250565b60016020528060005260406000206000915054906101000a900460ff1681565b60008054906101000a900473ffffffffffffffffffffffffffffffffffffffff1681565b600160003373ffffffffffffffffffffffffffffffffffffffff1673ffffffffffffffffffffffffffffffffffffffff16815260200190815260200160002060009054906101000a900460ff16610946576040517f08c379a000000000000000000000000000000000000000000000000000000000815260040161093d90611158565b60405180910390fd5b600260008273ffffffffffffffffffffffffffffffffffffffff1673ffffffffffffffffffffffffffffffffffffffff16815260200190815260200160002060009054906101000a900460ff166109d2576040517f08c379a00000000000000000000000000000000000000000000000000000000081526004016109c9906113e0565b60405180910390fd5b6000600260008373ffffffffffffffffffffffffffffffffffffffff1673ffffffffffffffffffffffffffffffffffffffff16815260200190815260200160002060006101000a81548160ff0219169083151502179055508073ffffffffffffffffffffffffffffffffffffffff167f1ac294409475d4b11fe6c1c1c84fac6aa4d1992769d9b51605b5e96f3aae568960405160405180910390a250565b600160003373ffffffffffffffffffffffffffffffffffffffff1673ffffffffffffffffffffffffffffffffffffffff16815260200190815260200160002060009054906101000a900460ff16610afc576040517f08c379a0000000000000000000000000000000000000000000000000000000008152600401610af390611158565b60405180910390fd5b600073ffffffffffffffffffffffffffffffffffffffff168173ffffffffffffffffffffffffffffffffffffffff1603610b6b576040517f08c379a0000000000000000000000000000000000000000000000000000000008152600401610b6290611230565b60405180910390fd5b600160008273ffffffffffffffffffffffffffffffffffffffff1673ffffffffffffffffffffffffffffffffffffffff16815260200190815260200160002060009054906101000a900460ff1615610bf8576040517f08c379a0000000000000000000000000000000000000000000000000000000008152600401610bef9061144c565b60405180910390fd5b60018060008373ffffffffffffffffffffffffffffffffffffffff1673ffffffffffffffffffffffffffffffffffffffff16815260200190815260200160002060006101000a81548160ff0219169083151502179055508073ffffffffffffffffffffffffffffffffffffffff167f44d6d25963f097ad14f29f06854a01f575648a1ef82f30e562ccd3889717e33960405160405180910390a250565b60026020528060005260406000206000915054906101000a900460ff1681565b6000806000600160008573ffffffffffffffffffffffffffffffffffffffff1673ffffffffffffffffffffffffffffffffffffffff16815260200190815260200160002060009054906101000a900460ff16600260008673ffffffffffffffffffffffffffffffffffffffff1673ffffffffffffffffffffffffffffffffffffffff16815260200190815260200160002060009054906101000a900460ff16600360008773ffffffffffffffffffffffffffffffffffffffff1673ffffffffffffffffffffffffffffffffffffffff16815260200190815260200160002060009054906101000a900460ff169250925092509193909250565b600160003373ffffffffffffffffffffffffffffffffffffffff1673ffffffffffffffffffffffffffffffffffffffff16815260200190815260200160002060009054906101000a900460ff16610e3a576040517f08c379a0000000000000000000000000000000000000000000000000000000008152600401610e3190611158565b60405180910390fd5b600073ffffffffffffffffffffffffffffffffffffffff168173ffffffffffffffffffffffffffffffffffffffff1603610ea9576040517f08c379a0000000000000000000000000000000000000000000000000000000008152600401610ea090611230565b60405180910390fd5b600260008273ffffffffffffffffffffffffffffffffffffffff1673ffffffffffffffffffffffffffffffffffffffff16815260200190815260200160002060009054906101000a900460ff1615610f36576040517f08c379a0000000000000000000000000000000000000000000000000000000008152600401610f2d906114b8565b60405180910390fd5b6001600260008373ffffffffffffffffffffffffffffffffffffffff1673ffffffffffffffffffffffffffffffffffffffff16815260200190815260200160002060006101000a81548160ff0219169083151502179055508073ffffffffffffffffffffffffffffffffffffffff167f9b401e423fa8d3194b83fa5c9a9ddc45e0ae9d32daddd773ae631cc29b7be0ff60405160405180910390a250565b600080fd5b600073ffffffffffffffffffffffffffffffffffffffff82169050919050565b600061100482610fd9565b9050919050565b61101481610ff9565b811461101f57600080fd5b50565b6000813590506110318161100b565b92915050565b60006020828403121561104d5761104c610fd4565b5b600061105b84828501611022565b91505092915050565b60008115159050919050565b61107981611064565b82525050565b60006020820190506110946000830184611070565b92915050565b6110a381610ff9565b82525050565b60006020820190506110be600083018461109a565b92915050565b60006060820190506110d96000830186611070565b6110e66020830185611070565b6110f36040830184611070565b949350505050565b600082825260208201905092915050565b7f4f6e6c792061646d696e00000000000000000000000000000000000000000000600082015250565b6000611142600a836110fb565b915061114d8261110c565b602082019050919050565b6000602082019050818103600083015261117181611135565b9050919050565b7f4e6f7420746563686e696369616e000000000000000000000000000000000000600082015250565b60006111ae600e836110fb565b91506111b982611178565b602082019050919050565b600060208201905081810360008301526111dd816111a1565b9050919050565b7f496e76616c696420616464726573730000000000000000000000000000000000600082015250565b600061121a600f836110fb565b9150611225826111e4565b602082019050919050565b600060208201905081810360008301526112498161120d565b9050919050565b7f416c726561647920746563686e696369616e0000000000000000000000000000600082015250565b60006112866012836110fb565b915061129182611250565b602082019050919050565b600060208201905081810360008301526112b581611279565b9050919050565b7f43616e6e6f742072656d6f76652073757065722061646d696e00000000000000600082015250565b60006112f26019836110fb565b91506112fd826112bc565b602082019050919050565b60006020820190508181036000830152611321816112e5565b9050919050565b7f4e6f742061646d696e0000000000000000000000000000000000000000000000600082015250565b600061135e6009836110fb565b915061136982611328565b602082019050919050565b6000602082019050818103600083015261138d81611351565b9050919050565b7f4e6f7420696e76657374696761746f7200000000000000000000000000000000600082015250565b60006113ca6010836110fb565b91506113d582611394565b602082019050919050565b600060208201905081810360008301526113f9816113bd565b9050919050565b7f416c72656164792061646d696e00000000000000000000000000000000000000600082015250565b6000611436600d836110fb565b915061144182611400565b602082019050919050565b6000602082019050818103600083015261146581611429565b9050919050565b7f416c726561647920696e76657374696761746f72000000000000000000000000600082015250565b60006114a26014836110fb565b91506114ad8261146c565b602082019050919050565b600060208201905081810360008301526114d181611495565b905091905056fea2646970667358221220bef60725c198df13db910c0b16e9d2ea80b2e1f745715c9f61ab06d96da318ff64736f6c63430008140033",
  "linkReferences": {},
  "deployedLinkReferences": {}
}